:020000021000EC
:10E0000070C000008BC0000089C0000087C0000005
:10E0100085C0000083C0000081C000007FC00000F8
:10E020007DC000007BC0000079C0000077C0000008
:10E0300075C0000073C0000071C000006FC0000018
:10E040006DC000006BC0000069C0000067C0000028
:10E0500065C0000063C0000061C000005FC0000038
:10E060005DC000005BC0000059C0000057C0000048
:10E0700055C0000053C0000081C000004FC0000028
:10E080004DC000004BC0000049C000007EF64D614D
:10E09000792020312032303230000A2D2D2D2D2DC7
:10E0A000424F4F544C4F41444552332D2D2D2D2D71
:10E0B0000A436F6D70696C6174696F6E206461747E
:10E0C000653A0A005354415254494E47204D414944
:10E0D0004E2041505000626F6F746C6F61646572C6
:10E0E000330011241FBECFEFD0E1DEBFCDBF11E062
:10E0F000A0E0B1E0E4EBFDEE01E00BBF02C0079051
:10E100000D92A631B107D9F721E0A6E1B1E001C037
:10E110001D92AA31B207E1F781D3EEC571CF9B0101
:10E12000AC0184E0220F331F441F551F8A95D1F79D
:10E1300060E070E081EE90E087D48FEF820F8093F3
:10E140009900DA01C9010197A109B109892F9A2F14
:10E15000AB2FBB278093980088E980939A0008959D
:10E1600090919B0095FFFCCF80939C000895809137
:10E170009C00089580919B00807808951F920F92D3
:10E180000FB60F9211248F93CF93DF931F92CDB7C9
:10E19000DEB7969A80919C0089830F90DF91CF9192
:10E1A0008F910F900FBE0F901F901895CF93DF9314
:10E1B000EC011B821A821D821C821F821E828EE14C
:10E1C00098E064D499838883DF91CF910895FC010E
:10E1D000DB0112968D919C91139793838283149601
:10E1E0008D919C9115979583848316968D919C9122
:10E1F0001797978386838D919C919183808308954F
:10E20000FC01868197818E319840B1F0A081B18167
:10E2100084819581A80FB91F6C93848195810196A3
:10E220006EE178E0FDD395838483868197810196A2
:10E230009783868381E0089580E00895CF93DF93EC
:10E24000FC01C681D781209791F082819381A081C2
:10E25000B181A80FB91F2C9101966EE178E0E0D34F
:10E26000938382832197D783C683822F01C080E066
:10E27000DF91CF910895FC01868197810895FC017B
:10E280001382128215821482178216820895CF9209
:10E29000DF92EF92FF92CF93DF93EC016A017B0153
:10E2A000C114D104E104F10441F0CE01C7DF81E0E3
:10E2B000C81AD108E108F108F3CFDF91CF91FF90A0
:10E2C000EF90DF90CF900895CF93DF93CDB7DEB777
:10E2D00060970FB6F894DEBF0FBECDBFBC01CE0174
:10E2E000099675DF88E0FE013996DE0111960190EE
:10E2F0000D928A95E1F729813A814B815C816D818C
:10E300007E818F81988560960FB6F894DEBF0FBE30
:10E31000CDBFDF91CF9108951F93CF93DF93EC0191
:10E320008DDF182FCE018ADF90E0982F8827810F8C
:10E33000911DDF91CF911F9108959627092E029488
:10E34000202D2F702927692F6025660F607E2627D4
:10E35000602D6927607F6695092E000C661F9695D3
:10E36000969596959F7196279827822F0895FC0180
:10E370008CE3808316821582108617828EE3818754
:10E38000128672836183548343830895FC018CE376
:10E3900080831482138216821582108617828EE380
:10E3A0008187128683E090E09283818308950F93A2
:10E3B0001F93CF93DF938C01EB018881882381F039
:10E3C000F80185819681019696838583688187818E
:10E3D0009085B3DFF801908787838991C1DEEDCF07
:10E3E000DF91CF911F910F910895EF92FF920F93BC
:10E3F0001F93CF938C017B01C7010F2C000CAA0B3C
:10E40000BB0BABBFFC01C7918FEFE81AF80ACC2316
:10E4100081F0F801858196810196968385836C2F22
:10E42000878190858ADFF801908787838C2F98DE1B
:10E43000E3CFCF911F910F91FF90EF900895EF924E
:10E44000FF920F931F93CF93DF9300D0CDB7DEB72A
:10E450001A821982FC012285211122C081E0828763
:10E46000EE2E8F0190910601802F8E19891760F092
:10E47000898176DE8A810F900F90DF91CF911F9175
:10E480000F91FF90EF906CCEF801F1908F018F2DDE
:10E4900067DE6F2D89819A8150DF9A838983E2CF6D
:10E4A0000F900F90DF91CF911F910F91FF90EF9000
:10E4B0000895C5CFCF93DF93EC0179DFCE01DF91D3
:10E4C000CF91BDCFCF93DF93EC018FDFCE01B7DFCC
:10E4D000CE01DF91CF910895DC011C96ED91FC9166
:10E4E0001D9781810895CF92DF92EF92FF920F9353
:10E4F0001F93CF93DF93EC018B01CB01BCDE0C9714
:10E5000010F480E01FC018821B866E018CE0C80EDC
:10E51000D11CC801B0DE0C97A0F3C8018FDE888340
:10E520008E33B9F77E01EFEFEE1AFE0AC80186DEE0
:10E53000F70181937F01EC15FD05C1F78B858C33C5
:10E5400041F781E0DF91CF911F910F91FF90EF9004
:10E55000DF90CF900895EF92FF920F931F93CF9388
:10E56000DF93CDB7DEB728970FB6F894DEBF0FBEA6
:10E57000CDBF8C017B01DC011D969C938E931C9773
:10E580001F967C936E931E97CB019EDE29833A8360
:10E590004B835C836D837E838F839887BE016F5F1F
:10E5A0007F4FC801A0DF81110CC0C70168DED80110
:10E5B0001C96ED91FC911D978FEF90E092838183E3
:10E5C00008C04CE050E060E070E0F8018685978577
:10E5D0005EDE28960FB6F894DEBF0FBECDBFDF918A
:10E5E000CF911F910F91FF90EF9008958F929F927E
:10E5F000AF92BF92EF92FF920F931F93CF93DF934F
:10E60000CDB7DEB728970FB6F894DEBF0FBECDBFEB
:10E610007C01DC011E968D919C911F9755DE29830C
:10E620003A834B835C836D837E838F839887D70186
:10E630001C96ED91FC911D9785809680A780B084F3
:10E6400000E010E081149104A104B10409F424C095
:10E65000CE010196F3DD98013827032E0294802D18
:10E660008F708327932F9025990F907E8927902D67
:10E670009327907F9695032E000C991F369536951B
:10E6800036953F7139273227282F8901B1E08B1A3F
:10E690009108A108B108D6CFD7011C96ED91FC9145
:10E6A0001D97218532850217130721F08FEF90E027
:10E6B0009283818381E00217130709F080E0289696
:10E6C0000FB6F894DEBF0FBECDBFDF91CF911F9183
:10E6D0000F91FF90EF90BF90AF909F908F90089513
:10E6E000AF92BF92CF92DF92EF92FF920F931F9360
:10E6F000CF93DF93CDB7DEB76B970FB6F894DEBF3D
:10E700000FBECDBFAC86BD86CE86DF86E88AF98A8D
:10E710000A8B1B8B2C8B3D8B4E8B5F8B688F798F7D
:10E720008A8F9B8FCA8CDB8CC601F6DD00E010E07F
:10E73000182F110F110F110F8EE0E82EF12C90E41D
:10E74000B92EF601408151814E0D5F1DB80180E068
:10E7500090E0D4D282B38B2582BBF39413958EE0E4
:10E76000E81688E0F80669F79698E88DF98D4381F8
:10E77000548160E070E0CE010196F9DDCE01019692
:10E7800098DE6B960FB6F894DEBF0FBECDBFDF915B
:10E79000CF911F910F91FF90EF90DF90CF90BF909E
:10E7A000AF900895CF93DF93CDB7DEB72B970FB619
:10E7B000F894DEBF0FBECDBF40E050E063E070E0F4
:10E7C000CE010196D4DD66ED70EECE0101967ADEC3
:10E7D00036DECE0101966DDE2FEF8FE796E12150F8
:10E7E00080409040E1F700C00000CE010196CEDDF0
:10E7F0006AE970EECE010196F8DD6EE870EECE01AA
:10E800000196F3DDCE01019654DE2B960FB6F894F7
:10E81000DEBF0FBECDBFDF91CF9108954F925F92C3
:10E820006F927F92AF92BF92CF92DF92EF92FF9260
:10E830000F931F93CF93DF93CDB7DEB7A3970FB698
:10E84000F894DEBF0FBECDBF80E090E040D291B320
:10E85000906C91BB979A0C9814981C98811102C0E7
:10E860000C9BC2C060E072EC81E090E058DCCE010D
:10E870004C969CDC97DF969AFFEF2FE382E0F150F5
:10E8800020408040E1F700C000009698412C512CB8
:10E890003201C301B20120E23EE440E050E0D4D0B6
:10E8A000672B682B692B19F482B3805882BB2FEF3A
:10E8B000421A520A620A720A5DDC882331F057DC80
:10E8C000682FCE014C969CDCF7CFC301B20120EA41
:10E8D0003FE040E050E0B8D0672B682B692BC9F6C9
:10E8E000CE014C96C8DC892BA1F2BE01645E7F4F3D
:10E8F000CE01019630DECE010196EEDD182FCE015D
:10E900004C96B9DCA0E0B0E0ED85FE8545815681EE
:10E910006781708584179507A607B70708F4B9CFF4
:10E92000CE01019663DE882309F449C01B30F1F063
:10E93000A0F41130A1F5A980BA80CB80DC80ED80F5
:10E94000FE800F81188529853A854B855C856D850C
:10E950007E858F859889C4DE43C01E3F49F01F3FE6
:10E96000F1F440E050E061E070E022C01BDF38C00D
:10E9700040E050E063E070E0CE014196F8DC64ECEA
:10E9800070EECE0141969EDDCE01419692DD60E0B3
:10E9900080E090E0A4D1E0E0F0E009957ACFCE01EC
:10E9A0004C966DDCED85FE854381548162E070E01C
:10E9B000CE014196DCDCCE0141967BDD6ACFED8550
:10E9C000FE854381548161E070E0CE014196CFDC49
:10E9D00067E071E0CE0141966DDDCE01419669DDC3
:10E9E000CE014C964CDC55CF96989798E0E0F0E03D
:10E9F000099580E090E0A3960FB6F894DEBF0FBEB5
:10EA0000CDBFDF91CF911F910F91FF90EF90DF90DD
:10EA1000CF90BF90AF907F906F905F904F90089590
:10EA2000AA1BBB1B51E107C0AA1FBB1FA617B70734
:10EA300010F0A61BB70B881F991F5A95A9F7809550
:10EA40009095BC01CD010895A1E21A2EAA1BBB1B13
:10EA5000FD010DC0AA1FBB1FEE1FFF1FA217B307AA
:10EA6000E407F50720F0A21BB30BE40BF50B661FC0
:10EA7000771F881F991F1A9469F760957095809584
:10EA800090959B01AC01BD01CF0108950F931F9399
:10EA9000CF93DF938230910510F482E090E0E09113
:10EAA0001801F091190120E030E0A0E0B0E03097CB
:10EAB00019F1408151810281138148175907C8F02B
:10EAC0008417950769F4109731F012960C931297FA
:10EAD00013961C9327C0009318011093190122C0AC
:10EAE0002115310519F04217530718F49A01BD0199
:10EAF000EF01DF01F801DBCF21153105F9F0281B0B
:10EB0000390B2430310580F48A819B8161157105B0
:10EB100021F0FB019383828304C0909319018093B9
:10EB20001801FE01329644C0FE01E20FF31F8193EB
:10EB3000919322503109398328833AC020911601DC
:10EB400030911701232B41F42091020130910301F0
:10EB5000309317012093160120910001309101019B
:10EB60002115310541F42DB73EB740910401509174
:10EB70000501241B350BE0911601F0911701E217F6
:10EB8000F307A0F42E1B3F0B2817390778F0AC01D0
:10EB90004E5F5F4F2417350748F04E0F5F1F5093AD
:10EBA0001701409316018193919302C0E0E0F0E0D9
:10EBB000CF01DF91CF911F910F910895CF93DF93F4
:10EBC000009709F481C0FC01329713821282A09150
:10EBD0001801B0911901109781F420813181820FC1
:10EBE000931F20911601309117012817390751F50D
:10EBF000F0931701E093160167C0ED0120E030E0CB
:10EC0000CE17DF0740F44A815B819E014115510513
:10EC1000F1F0EA01F5CFD383C28340815181840FA3
:10EC2000951FC817D90759F488819981840F951FBA
:10EC30000296918380838A819B81938382832115AD
:10EC4000310529F4F0931901E09318013DC0E90161
:10EC5000FB83EA8349915991C40FD51FEC17FD0737
:10EC600061F480819181840F951F0296E901998357
:10EC70008883828193819B838A83E0E0F0E012960F
:10EC80008D919C911397009719F0FD01DC01F7CF4E
:10EC90008D919C9111979D012E5F3F4F820F931F85
:10ECA00020911601309117012817390769F4309720
:10ECB00029F4109219011092180102C013821282D5
:10ECC000B0931701A0931601DF91CF910895E199B8
:10ECD000FECF9FBB8EBBE09A99278DB30895262F58
:10ECE000E199FECF9FBB8EBB2DBB0FB6F894E29A85
:0CECF000E19A0FBE01960895F894FFCF42
:10ECFC00CF92DF92EF92FF921F93CF93DF931FB7C8
:10ED0C00F894DA0153956B017C0121E0EC9111969A
:10ED1C003C911197C32FD0E0DC2FCC27CE0FD11D07
:10ED2C00E0916800E0FDFCCFE199FECF0E01F60109
:10ED3C00E0925B0020936800E8951124129632E073
:10ED4C00C30ED11CE11CF11C4A175B07F9F620918C
:10ED5C00680020FDFCCFE199FECF23E0FB018093FE
:10ED6C005B0020936800E8952091680020FDFCCFA3
:10ED7C00E199FECF25E0FB0180935B0020936800B6
:10ED8C00E8958091680080FDFCCFE199FECF81E190
:10ED9C0080936800E8951FBFDF91CF911F91FF9082
:08EDAC00EF90DF90CF90089575
:10EDB40000001A0120000A6D61696E6C6F6F70208B
:06EDC4006E61636B0000AC
:040000031000E00009
:00000001FF
